:100000000EC028C059C026C025C024C023C022C0AD
:1000100021C020C01FC07DC01DC01CC01BC011243A
:100020001FBECFE5D2E0DEBFCDBF10E0A0E6B0E05E
:10003000E0E2F4E002C005900D92AE37B107D9F7C7
:1000400020E0AEE7B0E001C01D92A138B207E1F7B1
:1000500089D0E4C1D5CF87B38F6087BBC39808959B
:10006000C19AC1980895C29A0000C29800000895EC
:10007000CF93DF93D82FC8E0DD2314F4C09A01C0DA
:10008000C098EEDFDD0FC150B9F7DF91CF91089531
:10009000EFDFE9DF0895E199FECF1FBA8EBB6DBB9C
:1000A000F894E29AE19A78940895E199FECF1FBA04
:1000B0008EBBE09A8DB308951F920F920FB60F92E8
:1000C00011248F939F93B4991DC080917E00882343
:1000D00071F018C01092800081E080937E0082E071
:1000E00083BF8DE388BD89B7886089BF0BC08091CD
:1000F00080008F5F809380009DEF90937F0087301A
:1001000048F7EACF9F918F910F900FBE0F901F90ED
:1001100018951F920F920FB60F9211242F933F93B1
:100120004F935F936F937F938F939F93AF93BF93FF
:10013000EF93FF9310927E0019BE6091800087E0DC
:10014000AADFFF91EF91BF91AF919F918F917F9126
:100150006F915F914F913F912F910F900FBE0F9034
:100160001F901895CF93DF93CDB7DEB7A2970FB648
:10017000F894DEBF0FBECDBF6EDF98B380E1892754
:1001800088BB80E1E0E6F0E0DE01119601900D927F
:100190008A95E1F787E0E0E7F0E0DE015196019013
:1001A0000D928A95E1F78FEF888F9FE3998F97E003
:1001B000E7E7F0E0DE015A9601900D929A95E1F79B
:1001C00089A380EC8AA387E070DF80938000883069
:1001D00010F0109280008BB780628BBFAC9A78943D
:1001E00008E0809180008111FAC010927F00E8E160
:1001F000F0E0EC0FFD1FE80FF11D808149DF2FE9D2
:1002000086E891E0215080409040E1F700C0000076
:100210002FE986E891E0215080409040E1F700C04E
:10022000000080917F008F5F80937F008230F8F222
:1002300080918000813009F0D9C010927F0080E069
:10024000E1E0F0E0EC0FFD1FE80FF11D808120DF01
:100250002FE986E891E0215080409040E1F700C00E
:10026000000080917F008F5F80937F00803140F39A
:1002700080918000823009F0C0C010927F0080E041
:10028000E1E1F0E0EC0FFD1FE80FF11D808100DFE0
:100290002FE986E891E0215080409040E1F700C0CE
:1002A000000080917F008F5F80937F00873040F354
:1002B00000937F00802F90918000923089F4E1E1DB
:1002C000F0E0EC0FFD1FE80FF11D8081E1DE2FE96A
:1002D00086E891E0215080409040E1F700C00000A6
:1002E00080917F00815080937F008111E4CF8091C5
:1002F0008000833009F088C010927F0080E0EAE13E
:10030000F0E0EC0FFD1FE80FF11D8081C1DE2FE949
:1003100086E891E0215080409040E1F700C0000065
:1003200080917F008F5F80937F00863040F38091C3
:100330008000843009F06FC010927F0080E0E1E21D
:10034000F0E0EC0FFD1FE80FF11D8081A1DE2FE929
:1003500086E891E0215080409040E1F700C0000025
:100360002FE986E891E0215080409040E1F700C0FD
:10037000000080917F008F5F80937F008230F8F2D1
:10038000809180008530B9F410927F0010E0812FB9
:100390007FDE110F1F5F2FE986E891E0215080403A
:1003A0009040E1F700C0000080917F008F5F809354
:1003B0007F00893060F380918000863009F011CF92
:1003C0008FEF66DE2FE986E891E021508040904073
:1003D000E1F700C0000005CF10927F0030CF8130E0
:1003E00009F046CFF9CF10927F0049CF823009F053
:1003F0007ECFF9CF10927F0081CF833009F097CF65
:10040000F9CF10927F009ACF843009F0B9CFF9CF9D
:1004100010927F00BBCF853071F6FACFF894FFCFF2
:100420000103070F1F3FBFFF7FBF3F3E3C38302017
:0E043000010515171F3FFFFEFDFBF7EFDFFF75
:00000001FF
