:100000000EC028C072C026C025C024C023C022C094
:1000100021C020C01FC0AEC01DC01CC01BC0112409
:100020001FBECFE5D2E0DEBFCDBF10E0A0E6B0E05E
:10003000E8EFF4E002C005900D92AC36B107D9F7B5
:1000400020E0ACE6B0E001C01D92A037B207E1F7B6
:100050009ED050C2D5CF87B38F6087BBC398089519
:10006000C19AC1980895C29A0000C29800000895EC
:10007000CF93DF93D82FC8E0DD2314F4C09A01C0DA
:10008000C098EEDFDD0FC150B9F7DF91CF91089531
:10009000E199FECF1FBA8EBB6DBBF894E29AE19A4C
:1000A00078940895E199FECF1FBA8EBBE09A8DB384
:1000B000089587EA91E60197F1F700C0000087EA0A
:1000C00091E60197F1F700C0000087EA91E60197F9
:1000D000F1F700C0000087EA91E60197F1F700C050
:1000E00000000895C5DFBFDF08951F920F920FB67D
:1000F0000F9211242F933F934F935F936F937F93AE
:100100008F939F93AF93BF93EF93FF93B49921C0C5
:1001100080916C00882379F01CC010926F00609170
:100120006F0087E0B5DF82E083BF8DE388BD89B7CC
:10013000886089BF0EC080916F008F5F80936F00D1
:1001400010926E0010926D0090916400891728F74C
:10015000E6CFFF91EF91BF91AF919F918F917F91EA
:100160006F915F914F913F912F910F900FBE0F9024
:100170001F9018951F920F920FB60F921124109294
:100180006C0019BE0F900FBE0F901F901895CF9363
:10019000DF93CDB7DEB72B970FB6F894DEBF0FBE57
:1001A000CDBF59DF98B380E1892788BB97B388E03A
:1001B000892787BB87E0E5E6F0E0DE011196019034
:1001C0000D928A95E1F78DE788878BEB898787ED1C
:1001D0008A878FEE8B8787E065DF80936F0097E0DB
:1001E00090936400883010F010926F008BB780629B
:1001F0008BBFAC9A789411E001E080916E008F5F24
:1002000080936E0080916F00843019F48FEF6ADF65
:1002100050DF80916F00813059F48FEF63DF809160
:100220006E00843021F48EEF5DDF10926E0041DFAE
:1002300080916F00823071F58FEF54DF80916E00F6
:100240008430B1F480916D00E1E0F0E0EC0FFD1F2F
:10025000E80FF11D808146DF10926E0080916D00E5
:100260008F5F873019F080936D0002C010926D008F
:1002700087EA91E60197F1F700C0000087EA91E66E
:100280000197F1F700C0000087EA91E60197F1F7C6
:1002900000C0000080916F008330E9F48FEF22DF0F
:1002A00080916E008430B1F480916D00E8E0F0E060
:1002B000EC0FFD1FE80FF11D808114DF10926E001E
:1002C00080916D008F5F843019F080936D0002C0C3
:1002D00010926D00EEDE80916F00811121C01F5FD2
:1002E000812F00DF87EA91E60197F1F700C0000057
:1002F00087EA91E60197F1F700C0000087EA91E6EE
:100300000197F1F700C0000087EA91E60197F1F745
:1003100000C0000087EA91E60197F1F700C00000F5
:1003200080916F00853069F580916D008F7711F4B1
:1003300000936D0080916D00880F80936D00816047
:1003400080936E00CFDE87EA91E60197F1F700C057
:10035000000087EA91E60197F1F700C0000087EA04
:1003600091E60197F1F700C0000087EA91E6019756
:10037000F1F700C0000087EA91E60197F1F700C0AD
:10038000000080916F00863009F037CF4DD0AADE93
:1003900090DE33CF8F929F92AF92BF92CF92DF9237
:1003A000EF92FF92CF93DF93EC01688179818A818C
:1003B0009B81611571058105910521F464E279ED58
:1003C0008BE597E02DE133EF41E050E055D0490156
:1003D0005A0127EA31E440E050E035D06B017C015E
:1003E0002CEE34EF4FEF5FEFC501B4012CD0DC01F0
:1003F000CB018C0D9D1DAE1DBF1DB7FF03C0019726
:10040000A109B04888839983AA83BB839F77DF9132
:10041000CF91FF90EF90DF90CF90BF90AF909F90E3
:100420008F900895B7DF089580E690E0B3DF0895D8
:10043000A0E0B0E08093600090936100A093620020
:10044000B09363000895EE27FF27AA27BB2708C0B3
:10045000A20FB31FE41FF51F220F331F441F551FA8
:10046000969587957795679598F37040A9F70097CB
:1004700099F7BD01CF010895052E97FB16F400945E
:100480000FD057FD05D014D007FC02D046F408C0A9
:1004900050954095309521953F4F4F4F5F4F0895B0
:1004A00090958095709561957F4F8F4F9F4F0895E0
:1004B000A1E21A2EAA1BBB1BFD010DC0AA1FBB1F68
:1004C000EE1FFF1FA217B307E407F50720F0A21BDA
:1004D000B30BE40BF50B661F771F881F991F1A9447
:1004E00069F760957095809590959B01AC01BD0171
:0804F000CF010895F894FFCF3D
:0C04F8000100000002FDFBF7EFDFBF7FFA
:00000001FF
