S010000053686966743539352E7372656373
S11300000EC028C070C026C025C024C023C022C092
S113001021C020C01FC094C01DC01CC01BC011241F
S11300201FBECFE5D2E0DEBFCDBF10E0A0E6B0E05A
S1130030E2E5F9E002C005900D92A03FB107D9F7BF
S113004020E0A0EFB0E001C01D92A33FB207E1F7AA
S1130050A0D07DC4D5CF87B38F6087BBC3980895E4
S1130060C19AC1980895C29A0000C29800000895E8
S1130070CF93DF93D82FC8E0DD2314F4C09A01C0D6
S1130080C098EEDFDD0FC150B9F7DF91CF9108952D
S1130090FF920F931F93CF93DF93C82FD62F142F64
S11300A0F22E802FE5DF8F2DE3DF812FE1DF8D2F0F
S11300B0DFDF8C2FDDDFD7DFDF91CF911F910F9131
S11300C0FF900895E199FECF1FBA8EBB6DBBF894E3
S11300D0E29AE19A78940895E199FECF1FBA8EBB13
S11300E0E09A8DB308951F920F920FB60F921124C8
S11300F08F939F93B4991DC08091F000882371F071
S113010018C01092F20081E08093F00082E083BF77
S11301108DE388BD89B7886089BF0BC08091F200E8
S11301208F5F8093F2009DEF9093F100873048F742
S1130130EACF9F918F910F900FBE0F901F9018954B
S11301401F920F920FB60F9211242F933F934F9348
S11301505F936F937F938F939F93AF93BF93EF932B
S1130160FF931092F00019BE6091F20087E0AADFBD
S1130170FF91EF91BF91AF919F918F917F916F917B
S11301805F914F913F912F910F900FBE0F901F9051
S11301901895CF93DF93CDB7DEB7C059D1090FB609
S11301A0F894DEBF0FBECDBF88E4E0E6F0E0DE01E8
S11301B0A75BBF4F01900D928A95E1F788E4E8EAC6
S11301C0F0E0DE01119601900D928A95E1F743DF8C
S11301D098B380E1892788BB87E07EDF8093F200B3
S11301E0893010F01092F2008BB780628BBFAC9A0A
S11301F078940F2EFFE07F2EF02DE091F200E111B4
S11302004AC31092F100F0E0EE0FFF1FEE0FFF1F44
S1130210EE0FFF1F89E490E08C0F9D1FE80FF91F7C
S1130220A081B180C280D380E480F580B681E7816B
S11302302A2F3B2D4C2D5D2D6E2D7F2D8B2F9E2F28
S113024000E251D3922E2A2F3B2D4C2D5D2D6E2D85
S11302507F2D8B2F9E2F08E146D3A22E2A2F3B2DD4
S11302604C2D5D2D6E2D7F2D8B2F9E2F00E13BD3CA
S1130270F22F2A2F3B2D4C2D5D2D6E2D7F2D8B2F94
S11302809E2F08E030D3622F092D2A2D4F2F8A2F5D
S1130290FFDE83ED90E30197F1F700C0000083EDEA
S11302A090E30197F1F700C0000083ED90E301971C
S11302B0F1F700C00000E091F100EF5FE093F1007E
S11302C0E93008F4A0CFE7C2F0E0EE0FFF1FEE0F15
S11302D0FF1FEE0FFF1F81E090E08C0F9D1FE80FC2
S11302E0F91FA081B180C280D380E480F580B681FB
S11302F0E7812A2F3B2D4C2D5D2D6E2D7F2D8B2FCD
S11303009E2F00E2F0D2922E2A2F3B2D4C2D5D2DF4
S11303106E2D7F2D8B2F9E2F08E1E5D2A22E2A2F42
S11303203B2D4C2D5D2D6E2D7F2D8B2F9E2F00E1AF
S1130330DAD2F22F2A2F3B2D4C2D5D2D6E2D7F2DE1
S11303408B2F9E2F08E0CFD2622F092D2A2D4F2FFD
S11303508A2F9EDE83ED90E30197F1F700C0000041
S113036083ED90E30197F1F700C0000083ED90E383
S11303700197F1F700C00000E091F100EF5FE09316
S1130380F100E83008F4A0CF88E08093F100E8E0C1
S11303908091F200813009F059C0F0E03197EE0FFE
S11303A0FF1FEE0FFF1FEE0FFF1F81E090E08C0F89
S11303B09D1FE80FF91FA081B180C280D380E48023
S11303C0F580B681E7812A2F3B2D4C2D5D2D6E2DB6
S11303D07F2D8B2F9E2F00E286D2922E2A2F3B2D2B
S11303E04C2D5D2D6E2D7F2D8B2F9E2F08E17BD202
S11303F0A22E2A2F3B2D4C2D5D2D6E2D7F2D8B2F64
S11304009E2F00E170D2F22F2A2F3B2D4C2D5D2D13
S11304106E2D7F2D8B2F9E2F08E065D2622F092D24
S11304202A2D4F2F8A2F34DE83ED90E30197F1F7C5
S113043000C0000083ED90E30197F1F700C00000D5
S113044083ED90E30197F1F700C00000E091F10023
S1130450E150E093F100E1119BCF8091F2008230F2
S113046009F022C21092F10011E0812C912CA12CF0
S1130470D12CE12CB12CC12C212F382D492D5A2DF2
S11304806D2D7E2D8B2D9C2D00E22DD2A22F212FA0
S1130490382D492D5A2D6D2D7E2D8B2D9C2D08E147
S11304A022D2F22F212F382D492D5A2D6D2D7E2D3C
S11304B08B2D9C2D00E117D2E22F212F382D492DB1
S11304C05A2D6D2D7E2D8B2D9C2D08E00CD2622F84
S11304D00A2F2F2F4E2F812FDBDD212F382D492D71
S11304E05A2D6D2D7E2D8B2D9C2D01E0E1D1122FE7
S11304F0832E942EA52ED62EE72EB82EC92E83ED4C
S113050090E30197F1F700C000008091F1008F5F44
S11305108093F100863208F4AFCF8091F2008330EB
S113052009F0B5C01092F100F12CE12CD12CC12CB2
S1130530B12CA12C912C812C2F2D3E2D4D2D5C2DD9
S11305406B2D7A2D892D982D00E2CDD1A22F2F2D40
S11305503E2D4D2D5C2D6B2D7A2D892D982D08E186
S1130560C2D1F22F2F2D3E2D4D2D5C2D6B2D7A2DCA
S1130570892D982D00E1B7D1E22F2F2D3E2D4D2D41
S11305805C2D6B2D7A2D892D982D08E0ACD1622F2E
S11305900A2F2F2F4E2F8F2D7BDD2F2D3E2D4D2DEE
S11305A05C2D6B2D7A2D892D982D01E081D1A1E050
S11305B0B6D1F22EE32ED42EC52EB62EA72E982E0B
S11305C0892E83ED90E30197F1F700C0000080913C
S11305D0F1008F5F8093F100873208F4ADCF8091F2
S11305E0F200833009F053C01092F1002F2D3E2DFC
S11305F04D2D5C2D6B2D7A2D892D982D00E273D114
S1130600A22F2F2D3E2D4D2D5C2D6B2D7A2D892D56
S1130610982D08E168D1F22F2F2D3E2D4D2D5C2D04
S11306206B2D7A2D892D982D00E15DD1E22F2F2D90
S11306303E2D4D2D5C2D6B2D7A2D892D982D08E0A6
S113064052D1622F0A2F2F2F4E2F8F2D21DD2F2DC8
S11306503E2D4D2D5C2D6B2D7A2D892D982D01E08D
S113066027D1F22EE32ED42EC52EB62EA72E982EE9
S1130670892E83ED90E30197F1F700C0000080918B
S1130680F1008F5F8093F100873208F4AFCF80913F
S1130690F200843009F077C0E72CA12CB12CC12CD6
S11306A010E0D12C812C912C2E2D3A2D4B2D5C2D2C
S11306B0612F7D2D882D992D00E215D1A22F2E2D8D
S11306C03A2D4B2D5C2D612F7D2D882D992D08E120
S11306D00AD1F22F2E2D3A2D4B2D5C2D612F7D2D1D
S11306E0882D992D00E1FFD0E22F2E2D3A2D4B2D90
S11306F05C2D612F7D2D882D992D08E0F4D0622F7B
S11307000A2F2F2F4E2F8E2DC3DC20E030E040E047
S113071050E0612F607270E080E090E0A0E00BD1C7
S1130720A9F02E2D3A2D4B2D5C2D612F7D2D882D7A
S1130730992D01E0BDD0A1E0F2D0E22EA32EB42E7B
S1130740C52E162FD72E882E992E12C02E2D3A2D57
S11307504B2D5C2D612F7D2D882D992D01E0A8D086
S1130760E22EA32EB42EC52E162FD72E882E992E08
S113077083ED90E30197F1F700C000008091F2004F
S1130780843009F491CF8091F200853061F40FEF49
S11307902FEF4FEF6FEF8FEF7BDC83ED90E301974B
S11307A0F1F700C000008091F200863009F025CDF9
S11307B000E020E040E060E080E06ADC89EF90E067
S11307C00197F1F700C00000FF24F394812C912CD1
S11307D0A12CB12CC12CD12CE12C53C02F2D382DA0
S11307E0492D5A2D6B2D7C2D8D2D9E2D00E27BD015
S11307F0A22F2F2D382D492D5A2D6B2D7C2D8D2D6B
S11308009E2D08E170D0F22F2F2D382D492D5A2D11
S11308106B2D7C2D8D2D9E2D00E165D0E22F2F2D8B
S1130820382D492D5A2D6B2D7C2D8D2D9E2D08E0B4
S11308305AD0622F0A2F2F2F4E2F8F2D29DC89EFAC
S113084090E00197F1F700C000002F2D382D492DBD
S11308505A2D6B2D7C2D8D2D9E2DA1E060D0F22E76
S1130860832E942EA52EB62EC72ED82EE92E211512
S1130870310541055105604471058105910509F46F
S1130880BCCC8091F200863009F4A8CFB6CC10928B
S1130890F100E0E019CD8091F200813009F0DDCD66
S11308A0F6CF1092F10040CE833009F0F0CEF9CFAC
S11308B00F93083090F0982F872F762F652F542FA1
S11308C0432F322F22270850F4CF220F331F441F07
S11308D0551F661F771F881F991F0A95B2F70F913E
S11308E0089597FB10F8169400080F93083098F0B9
S11308F00850232F342F452F562F672F782F892FF9
S1130900902DF4CF0594979587957795679557958E
S11309104795379527950A95AAF70F9108950024CE
S1130920A7FD00942A0F301D401D501D601D701D31
S1130930801D901D08950024A7FD00942A173005FA
S11309404005500560057005800590050895F894EC
S1050950FFCFD3
S11309520000001F000000000000C0600000000052
S113096200002080000000000000100001000000D0
S113097201C0080022000000022007001C00000041
S11309820410000000000000F80F00000000000046
S113099200000000000000000000001F0000000032
S11309A20000C07F000000000000E0FF0000000023
S11309B20000F0FF0100000001C0F8FF2300000066
S11309C203E0FFFF7F00000007F0FFFFFF000000CD
S11309D2FFFFFFFFFF000000000000000000000016
S9030000FC
